:020000040800F2
:10000000F0FF0010A95F04089BC2010815810208D7
:10001000AD600408AD600408AD6004080000000095
:10002000000000000000000000000000A1C2010864
:100030009FC20108000000009DC2010805AE000833
:10004000AD600408AD600408AD600408AD6004084C
:10005000AD600408AD600408C1B50008EDB6000845
:10006000B1B6000875B6000839B6000865F4000896
:1000700055F4000845F4000835F4000821F40008A0
:100080000DF40008F9F30008AD600408AD60040841
:10009000AD600408AD600408AD600408FDB500085B
:1000A000259E0008B1A30008AD60040871A40008F3
:1000B000F1A2000831A2000865A10008650C010842
:1000C0006D0C0108590C0108610C0108AD600408B1
:1000D000AD60040871AF0008AD600408D5AE00083B
:1000E00085B50008AD600408ADFA0108559D00080B
:1000F000F59E0008AD600408C59F0008E5F3000800
:10010000AD600408AD60040895A00008AD60040867
:10011000AD600408AD600408F1560308D556030825
:10012000D1F30008BDF30008A9F3000895F3000817
:1001300081F30008AD600408AD600408AD600408F8
:10014000AD600408AD600408AD60040899CA0108F8
:100150006DF3000859F3000845F3000839AE0008B4
:100160004D0C0108550C0108AD600408AD60040891
:10017000AD600408AD600408AD600408AD6004081B
:08018000AD600408AD60040845
:08018800505B040001000000BF
:1001900010020100382C0020342C00200000000048
:1001A000E006000803123300BF3900208C3900201C
:1001B00000000000E406000825005A00B8380020BE
:1001C000123900200000000000000000F6110C00B1
:1001D000E4370020D837002000000000180700088E
:1001E00015007000F836002068370020000000007D
:1001F000000000002A0060003836002098360020F9
:1002000000000000F98702082C0010006C39002063
:100210007C39002000000000952C01082B002400F0
:10022000163A0020F239002000000000652C010879
:1002300029006400F037002054380020000000003E
:100240000000000004120200143C0020703D002059
:1002500000000000240700080F020100103C0020ED
:10026000743D002000000000260700081400020072
:10027000C4320020363600200000000028070008A5
:1002800010100200903B0020783D0020000000008C
:100290002A07000828001000803B00207C3D002039
:1002A00000000000BD0D010823001000AC3000204C
:1002B0008C3D002000000000D90D01081900050048
:1002C000783B00209C3D0020000000002C07000827
:1002D000F82106001E360020A43D0020000000008A
:1002E000320700081B00F400F8470020685C00207B
:1002F0000000000079A503080E020200784F0020DC
:100300005C5D002000000000380700082F0011008D
:100310002E5C0020605D0020000000003A0700080D
:10032000051006005C5C0020745D002000000000E9
:100330004C070008F5216E00704700207C5D00200E
:10034000000000003FAA010826000E00FC5D00200E
:10035000EC5D00200000000015AA01080B20100031
:10036000E04700200C5E002000000000520700085B
:100370001F101C00504700201C5E002000000000E1
:100380006207000805020100BC4B0020385E002017
:10039000000000007E07000803010A0096490020C3
:1003A0003C5E002000000000800700081D000100E6
:1003B0005C6D0020AC720020000000008A0700087D
:1003C000270004007C6D0020B072002000000000B7
:1003D0008C07000801200800186B0020B472002070
:1003E00000000000900700081A000A00F86A0020C8
:1003F000BC72002000000000980700080300010004
:100400004C6B0020C87200200000000000000000BB
:1004100016000800A0740020F482002000000000F4
:10042000A207000807020200CC8200201C830020E3
:1004300000000000AA07000802000C00A8740020B9
:1004400020830020000000000000000006020C00D5
:10045000A48200202C83002000000000F148030843
:10046000080209002C8200203883002000000000D0
:10047000E5460308F701060020820020448300209F
:1004800000000000AC0700080A020A00A873002060
:100490004C83002000000000B20700080E20EA0094
:1004A0000C8600207C8D002000000000658802087A
:1004B00013000400A4890020688E002000000000C2
:1004C000BC070008010104008C8500206C8E002010
:1004D00000000000000000000001040084850020EE
:1004E000708E002000000000C00700080201030019
:1004F0007F850020748E00200000000069460308FC
:1005000009020100AC8C0020788E00200000000061
:10051000C40700080C1060001C8700207C8E00209F
:10052000000000003D4603080102050094850020FC
:10053000DC8E002000000000319D03080002050051
:100540005C830020E48E002000000000000000001A
:100550001E000400A0870020EC8E00200000000098
:10056000C607000822000C00A88B0020F08E002097
:1005700000000000CA0700080400800048C80020EE
:1005800084D100200000000000000000F9010400F8
:100590000CBD002004D2002000000000B58300083C
:1005A000FD012400E4BC002008D20020000000006F
:1005B000458300080610160000B000202CD2002051
:1005C0000000000095880208FB0101003CAF0020FC
:1005D00044D2002000000000A9460308FC010900E5
:1005E00008AE002048D2002000000000B1460308F9
:1005F0000A101E0080A5002054D200200000000038
:10060000D60700083400100074A4002074D2002023
:100610000000000021880208110208004CA40020FC
:1006200084D2002000000000F40700081212040029
:1006300044A400208CD2002000000000FC07000829
:1006400012200D0030A4002090D2002000000000F5
:100650000008000811000C00BC980020A0D2002067
:10066000000000002347030818202C005C9800209D
:10067000ACD2002000000000114501080D0034003C
:1006800088980020D8D20020000000000D490308FF
:10069000FA010200F09000200CD3002000000000BE
:1006A0000988000802020300148F002010D30020E4
:1006B00000000000000000000C020100048F002078
:1006C00014D30020000000000E080008FE010900FD
:1006D000C890002018D30020000000000547030840
:1006E000000000000000000000000000000000000A
:1006F00000000000000000000000000000000000FA
:1007000000000000000000000000000000000000E9
:1007100000000000000001000000000000000000D8
:10072000000000001118000003000005000028016F
:1007300000000401F40119000000000000000000A6
:100740000000000000000000000000002000010187
:1007500000002B21231E64010100000001000A019A
:100760002900000000000000010000000500000159
:100770000203000000000000000000000000000074
:10078000040101006C1600000000000020030000BE
:10079000E8036400040A00017E05EA05B40532009E
:1007A0000000C409000019012828023C24010000AF
:1007B000000000004A01B400D6010000002004003F
:1007C000900100002E0000000100C800141E01006E
:1007D00064002C01280000300100005A00000000D5
:1007E000000090012C01C80064000200000000001D
:1007F000000000000000000001010101FFFFFFFFF9
:0F080000000000010000054F42463400000001D7
:10080F00010000005001000007000000020000007E
:10081F0000000000000000000102030406070809A1
:10082F00D6010000B91C0108000000000000000004
:10083F00010000000001010100000000FFFFFFFFA9
:10084F00010000000403090412010002020200402B
:10085F008304405700020102030100000902430014
:10086F00020100C032090400000102020100052448
:10087F0000100105240100010424020205240600D2
:10088F0001070582030800FF09040100020A0000A6
:10089F00000705010240000007058102400000002B
:1008AF00FF00000000FFFF0000000000AA55050137
:1008BF00000001000000010100000000010203041C
:1008CF00010203040607080993C3010891C8010830
:1008DF000DC40108659E0108D1A30108759E01088A
:1008EF00919E01083F9E0108319E01080000000003
:1008FF00000000002D202D2D202D2D2D2D202D2DF4
:10090F002D2D00000000000000000000000000007E
:10091F00000000AA550B010000AA5507010000AA0C
:10092F00550902000000000001000000C012AA5586
:10093F0003009F00FF1FFF1F24D2040800000000C8
:10094F00000000007D460308A0860100040000009F
:10095F000000000000000000000000000000000088
:10096F0000000000000000000000000044ED04083B
:10097F0074D104080000000045DA02087D00000071
:10098F000600000000000000000000000000000052
:10099F000000000000000000000000000000000048
:1009AF007CD104080000000000000000054202088E
:1009BF00E80300000300000000000000000000003A
:1009CF000000000000000000000000000000000018
:1009DF000000000058E004080000000000000000C4
:1009EF005F8C0208102700000300000000000000C9
:1009FF0000000000000000000000000000000000E8
:100A0F00000000000000000064E004080000000087
:100A1F00D52901089D5A0208204E0000050000004C
:100A2F0000000000000000000000000000000000B7
:100A3F00000000000000000000000000C4D3040804
:100A4F000000000000000000C58102081027000010
:100A5F000100000000000000000000000000000086
:100A6F000000000000000000000000000000000077
:100A7F0068E004080000000000000000C50B020839
:100A8F00E803000005000000000000000000000067
:100A9F000000000000000000000000000000000047
:100AAF000000000074E004080000000000000000D7
:100ABF00695B0308204E00000300000000000000E7
:100ACF000000000000000000000000000000000017
:100ADF00000000000000000084E004080000000097
:100AEF000000000061590308204E000003000000C1
:100AFF0000000000000000000000000000000000E7
:100B0F0000000000000000000000000094E0040856
:100B1F000000000000000000190C0208400D030047
:100B2F0003000000000000000000000000000000B3
:100B3F0000000000000000000000000000000000A6
:100B4F00E8D204080000000000000000A5690308B7
:100B5F00102700000100000000000000000000004E
:100B6F000000000000000000000000000000000076
:100B7F000000000094D104080000000000000000F5
:100B8F007DDD0308102700000300000000000000B7
:100B9F000000000000000000000000000000000046
:100BAF000000000000000000A4E0040800000000A6
:100BBF0000000000AD7C0108A086010001000000CC
:100BCF000000000000000000000000000000000016
:100BDF0000000000000000000000000080D10408A9
:100BEF0000000000000000000D41020850C300008B
:100BFF0001000000000000000000000000000000E5
:100C0F0000000000000000000000000000000000D5
:100C1F0088D10408000000000000000005AA0108A8
:100C2F007011010001000000000000000000000032
:100C3F0000000000000000000000000000000000A5
:100C4F0000000000ACE004080000000000000000FD
:100C5F00F5380208A8610000010000000000000044
:100C6F000000000000000000000000000000000075
:100C7F000000000000000000B8E0040800000000C1
:100C8F000000000091F40308A0860100010000009D
:100C9F000000000000000000000000000000000045
:100CAF00000000000000000000000000CCD304088A
:100CBF000000000000000000890E0208A00F0000D5
:100CCF000100000000000000000000000000000014
:100CDF000000000000000000000000000000000005
:100CEF00C4E0040800000000000000008DBC0108F3
:100CFF0010270000010000000000000000000000AD
:100D0F0000000000000000000000000000000000D4
:100D1F000000000014D304080000000000000000D1
:100D2F003D4A0308A00F0000010000000000000072
:100D3F0000000000000000000000000000000000A4
:100D4F000000000000000000F0D2040800000000C6
:100D5F00000000001D0402081A41000001000000FD
:100D6F000000000000000000000000000000000074
:100D7F000000000000000000000000002CD4040858
:100D8F000000000000000000A1A6010810270000CD
:100D9F000100000000000000000000000000000043
:100DAF000000000000000000000000000000000034
:100DBF001CE00408000000000000000065CA0308E2
:100DCF001A410000010000000000000000000000B8
:100DDF000000000000000000000000000000000004
:100DEF0000000000D0E00408000000000000000038
:100DFF00EDDE0108400D03000000000000000000C0
:100E0F0000000000000000000000000000000000D3
:100E1F000000000000000000D8E0040800000000FF
:100E2F0000000000810B0208400D030000000000CD
:100E3F0000000000000000000000000000000000A3
:100E4F00000000000000000000000000E0E00408C7
:100E5F000000000000000000A5E30308A0860100C9
:100E6F000300000000000000000000000000000070
:100E7F000000000000000000000000000000000063
:100E8F00ECE0040800000000000000002D590308EA
:100E9F0040420F00000000000000000000000000B2
:100EAF000000000000000000000000000000000033
:100EBF0000000000F8E0040800000000000000003F
:100ECF00016C030850C30000000000000000000088
:100EDF000000000000000000000000000000000003
:100EEF00000000000000000001000000FFFFFFFFF6
:100EFF00010102FFFF000000685E0C00FFFFFFFF13
:100F0F00FF0000000000803F000000000000000014
:100F1F00000000000000803F000000000000000003
:100F2F0000000000000000000000000000000000B2
:100F3F000000000000000000000000000000803FE3
:100F4F000000000000000000000000000100000091
:100F5F000000803F000000000000000000000000C3
:100F6F000000803F0000803F000000000C83002045
:100F7F000800000000000000FC82002008000000B4
:100F8F00489C04080508040000000000B0A20408F3
:100F9F00EC8E04089CA20408000000000000000072
:100FAF00749C040805080A0000000000B0A20408A1
:100FBF00EC8E0408B8A10408000000000000000037
:100FCF00E0010000FFFFFFFF010101004D9F03083B
:100FDF00000000004009002058F304080000000042
:100FEF000000000000000000000000009CF4040856
:100FFF000000000000000000DE09002004000000D7
:10100F0004F304080D000000B1C4030804230020FA
:10101F0000000000B4EC04080D000000D9C4030860
:10102F00F82200200000000024EE04080800000051
:10103F0000000000EC2200200400000020ED040856
:10104F000D00000001A00308E022002000000000B6
:10105F00D4ED040803000000E9C60308D4220020E1
:10106F000000000068F3040803000000E9C603084D
:10107F00C82200200000000020EA04080100000040
:10108F000000000000000000000000000000000051
:10109F000E00000000000000000000000000000033
:1010AF0058F30408000000000000000000000000DA
:1010BF00000000009CF40408000000000000000085
:1010CF00DE09002004000000B0F204080300000055
:1010DF00EDB30308BC2200200800000020ED040837
:1010EF000D00000001A00308E02200200000000016
:1010FF00D4ED040803000000E9C60308D422002041
:10110F000000000068F3040803000000E9C60308AC
:10111F00C82200200000000020EA0408010000009F
:10112F0000000000000000000000000000000000B0
:10113F000E00000000000000000000000000000092
:10114F0070F3040800000000000000000000000021
:10115F00000000009CF404080000000000000000E4
:10116F00DE09002004000000B8F2040803000000AC
:10117F00E9C60308102300200000000020EA04083D
:10118F00010000000000000000000000000000004F
:10119F00000000000E000000000000000000000032
:1011AF000000000020700020702D72000800000069
:1011BF0042570200000001064257020000000106DC
:1011CF000000000000000000781E0020FFFFFFFF5E
:1011DF00FA0000000100000001000000FFFF2D20B9
:1011EF002D2D202D2D2D2D202D2D2D00000000001B
:1011FF0000000000000000000000000000000000E0
:10120F00F4E90408FCE9040818EA040800000000E7
:10121F000000000000000000000000008AE9040840
:10122F000400000079C20308000000000000000065
:10123F0020EA040801000000000000000000000088
:10124F0000000000000000000E0000000000000081
:10125F000000000000000000FAC800200100C409CF
:10126F0000000000F8C800200100C40900000000C1
:10127F00F6C800200100C40900000000F4C80020D7
:10128F000100C40900000000F0C800200100C409DB
:10129F0000000000F2C800200100C4090000000097
:1012AF00EEC800200100C40900000000ECC80020B7
:1012BF000100C40900000000A68500200100C8003D
:1012CF0001000000A48500203200307532000000BC
:1012DF00A2850020055A05009F85002000FF010010
:1012EF00A185002001000000000A00209D8500203C
:1012FF0002000000E88F04089E85002000FF010017
:10130F00A085002001000000000A00209C8500201D
:10131F0002000000E88F04089285002080C1803E03
:10132F00050000009085002080C1803E0500000070
:10133F008A85002080C1803E05000000888500203E
:10134F0080C1803E050000008285002000FF010063
:10135F007E8500200A3201007D85002004000000F8
:10136F0098A104087C85002002000000ACA10408AD
:10137F000000000000000000080A00206C4B002055
:10138F009CFF2C0100000000C80700200A0000008D
:10139F00B8A1040872850020E0150C1700000000AA
:1013AF00CA07002008000000EC8E0408C9070020BF
:1013BF0005000000B0A204087485002002000000A0
:1013CF00D0A10408908700200100FF7F01000000DA
:1013DF008F87002002000000DCA104080186002096
:1013EF0003000000ECA104080086002003000000A9
:1013FF00ECA10408FE8600200000F40101000000AB
:10140F00FC8600200000F40101000000FA86002095
:10141F000000F40101000000F88600200000F40134
:10142F0001000000F686002000FF01001A8700204F
:10143F00E803D0070A0000001887002000640100AD
:10144F000A0000000D870020006401000C870020B7
:10145F000064010014870020006401000A000000EE
:10146F0013870020006401000A000000128700208B
:10147F00006401000A0000001787002000640100CB
:10148F000A00000016870020006401000A00000017
:10149F0015870020006401000A000000118700205A
:1014AF0000FF01000A0000001087002000FF01006C
:1014BF000A0000000F87002000FF01000A00000053
:1014CF00088600200000F4010100000006860020BD
:1014DF000000F40101000000048600200000F40168
:1014EF0001000000028600200000F401010000004E
:1014FF00088700201400E803010000000687002081
:10150F00E8033075010000000587002000C80100C6
:10151F000487002000C801000387002000C80100D5
:10152F0002870020006401000A00000001870020EC
:10153F0000FF01000A0000008587002000C801009D
:10154F008487002000C801008387002000C80100A5
:10155F008287002000C801008187002000C8010099
:10156F008087002000C801007F87002000C801008D
:10157F007E87002000C801007D87002000C8010081
:10158F0048EA04080000000000000000000000000E
:10159F000000000058EA04080900000000000000E5
:1015AF00AC0A00200400000060EA040809000000F3
:1015BF0000000000A00A002004000000A0F00408B2
:1015CF000900000000000000940A00200400000041
:1015DF008CE204080900000000000000880A0020C7
:1015EF000400000068EA0408090000000000000081
:1015FF007C0A00200400000070EA040809000000C3
:10160F0000000000700A00200400000078EA0408BF
:10161F000900000000000000640A00200400000020
:10162F0080EA04080900000000000000580A0020AA
:10163F000400000020EA0408010000000000000080
:10164F000000000000000000000000000E0000007D
:10165F00000000000000000000000000A8EB0408DC
:10166F00000000000000000000000000000000006B
:10167F00D8D104080700000000000000D00A0020A5
:10168F0000000000B8EB0408080000000000000094
:10169F00C40A002000000000C4EB0408080000008A
:1016AF0000000000B80A00200000000020EA040833
:1016BF00010000000000000000000000000000001A
:1016CF00000000000E0000000000000000000000FD
:1016DF0000000000CCEB0408000000000000000038
:1016EF000000000000000000DCEB04080D0000000B
:1016FF00000000000C0B002000000000E4EB0408C9
:10170F000D00000000000000000B00200000000092
:10171F00ECEB04080700000000000000F80A0020AE
:10172F0000000000F4EB04080D00000000000000B2
:10173F00EC0A002000000000FCEB04080D00000084
:10174F0000000000E00A00200000000004EC040884
:10175F000700000000000000D80A00200000000071
:10176F0020EA040801000000000000000000000053
:10177F0000000000000000000E000000000000004C
:10178F0000000000000000000CEC04080000000046
:10179F00000000000000000000000000D8D1040885
:1017AF000C00000000000000A885002000000000D1
:1017BF0020EC04080C00000000000000AA850020A7
:1017CF000000000030EC04080C00000000000000D6
:1017DF00E08500200000000040EC04080C00000031
:1017EF0000000000D48500200000000054EC040825
:1017FF000C00000000000000AC850020000000007D
:10180F0084E604080C00000000000000AE850020F4
:10181F000000000060EC04080C0000000000000055
:10182F00B08500200000000074EC04080C000000DC
:10183F0000000000B2850020000000007CEC0408CE
:10184F000C00000000000000B48500200000000024
:10185F0084EC04080C00000000000000F28500205A
:10186F00000000009CEC04080C00000000000000C9
:10187F00B685002000000000A8EC04080C00000052
:10188F0000000000B885002000000000DCDF040825
:10189F000C00000000000000BA85002000000000CE
:1018AF00B0EC04080C00000000000000BC85002014
:1018BF0000000000BCEC04080C0000000000000059
:1018CF00BE85002000000000C8EC04080C000000DA
:1018DF0000000000C085002000000000D4EC0408C8
:1018EF000C00000000000000C28500200000000076
:1018FF00E0EC04080C00000000000000C48500208C
:10190F0000000000ECEC04080C00000000000000D8
:10191F00D885002000000000F4EC04080C00000043
:10192F0000000000D685002000000000FCEC040839
:10193F000C00000000000000E48500200000000003
:10194F0008ED04080C00000000000000E6850020F0
:10195F000000000014ED04080C000000000000005F
:10196F00EC85002000000000ACE004080C00000033
:10197F0000000000C68500200000000020ED0408D4
:10198F000C00000000000000CE85002000000000C9
:10199F0028ED04080C00000000000000C88500209E
:1019AF000000000034ED04080C00000000000000EF
:1019BF00CA8500200000000040ED04080C00000064
:1019CF0000000000CC8500200000000048ED040856
:1019DF000C00000000000000D08500200000000077
:1019EF00F8D104080C00000000000000DA85002088
:1019FF000000000054ED04080C000000000000007F
:101A0F00D28500200000000060ED04080C000000EB
:101A1F0000000000E2850020000000006CED0408CB
:101A2F000C00000000000000DC850020000000001A
:101A3F0074ED04080C00000000000000DE8500209B
:101A4F00000000007CED04080C0000000000000006
:101A5F00E88500200000000084ED04080C00000061
:101A6F0000000000EA8500200000000020EA0408C2
:101A7F000100000000000000000000000000000056
:101A8F00000000000E000000000000000000000039
:101A9F00000000008CED04080000000000000000B2
:101AAF00000000000000000098ED04080D00000089
:101ABF0000000000640B002000000000A0ED0408EF
:101ACF000D00000000000000580B00200000000077
:101ADF00A8ED04080700000000000000500B0020D4
:101AEF0000000000B4ED0408070000000000000033
:101AFF00480B002000000000C0ED040809000000A2
:101B0F00000000003C0B002000000000CCED04089A
:101B1F000900000000000000300B00200000000052
:101B2F00D8ED04080900000000000000240B00207D
:101B3F0000000000E8ED04080900000000000000AC
:101B4F00180B00200000000020EA0408010000002C
:101B5F000000000000000000000000000000000076
:101B6F000E00000000000000000000000000000058
:101B7F00FCED040800000000000000000000000061
:101B8F00000000000CEE040805000000000000003B
:101B9F00FF8500200000000020EA0408010000007B
:101BAF000000000000000000000000000000000026
:101BBF000E00000000000000000000000000000008
:101BCF0014EE0408000000000000000000000000F8
:101BDF00000000009CF4040800000000000000005A
:101BEF00F40000200400000020EE04080D000000A7
:101BFF00DDC20308B80B00200000000004F3040846
:101C0F000D000000059F0308AC0B00200000000032
:101C1F00B4EC04080D000000E99E0308A00B00209F
:101C2F000000000024EE040808000000000000007F
:101C3F00940B00200400000020ED04080D000000AC
:101C4F00319E0308880B0020000000002CEE0408D2
:101C5F0009000000000000007C0B002004000000C1
:101C6F00D4ED040803000000E9C60308700B002040
:101C7F000000000020EA040801000000000000003E
:101C8F000000000000000000000000000E00000037
:101C9F0000000000000000000000000034EE040807
:101CAF000000000000000000000000000000000025
:101CBF0044EE04080D00000000000000D00B0020CF
:101CCF00000000004CEE04080A00000000000000B5
:101CDF00B98A00200000000058EE04080A00000036
:101CEF0000000000C18A00200000000060EE040820
:101CFF000A00000000000000C98A00200000000058
:101D0F0068EE04080800000000000000C40B00206B
:101D1F000000000070EE04080400000081C80308F2
:101D2F00000000000000000020EA0408010000008D
:101D3F000000000000000000000000000000000094
:101D4F000E00000000000000000000000000000076
:101D5F007CEE0408000000000000000000000000FE
:101D6F000000000090EE04080D00000000000000CD
:101D7F00E80B002000000000A0EE040804000000A3
:101D8F0025C503080000000000000000A8EE0408AD
:101D9F000D00000000000000DC0B00200000000020
:101DAF00BCEE04080400000001C503080000000099
:101DBF000000000020EA04080100000000000000FD
:101DCF000000000000000000000000000E000000F6
:101DDF00000000000000000000000000C4EE040836
:101DEF0000000000000000000000000000000000E4
:101DFF00D8EE04080700000000000000240C0020AB
:101E0F0000000000E4EE04080800000000000000DD
:101E1F00180C002000000000F0EE0408080000007D
:101E2F00000000000C0C002000000000FCEE040875
:101E3F000800000000000000000C0020000000005F
:101E4F0008EF04080800000000000000F40B002059
:101E5F000000000020EA040801000000000000005C
:101E6F000000000000000000000000000E00000055
:101E7F0000000000000000000000000014EF040844
:101E8F000000000000000000A70900200000000073
:101E9F0020EF04080B00000000000000B40C00202D
:101EAF00000000002CEF04080B00000000000000F1
:101EBF00A80C00200000000038EF04080B00000001
:101ECF00000000009C0C00200000000044EF0408FC
:101EDF000B00000000000000900C0020000000002C
:101EEF0050EF04080B00000000000000840C0020DD
:101EFF00000000005CEF04080B0000000000000071
:101F0F00780C00200000000068EF04080B000000B0
:101F1F00000000006C0C00200000000074EF0408AB
:101F2F000B00000000000000600C0020000000000B
:101F3F0080EF04080B00000000000000540C00208C
:101F4F00000000008CEF04080700000000000000F4
:101F5F004C0C00200000000094EF04080700000064
:101F6F0000000000440C002000000000A0EF040857
:101F7F000B00000000000000380C002000000000E3
:101F8F00ACEF040808000000000000002C0C00203B
:101F9F000000000020EA040801000000000000001B
:101FAF000000000000000000000000000E00000014
:101FBF00000000000000000000000000B8EF04085F
:101FCF000000000000000000000000000000000002
:101FDF00CCEF04080800000000000000E40C002013
:101FEF0000000000D8EF0408080000000000000007
:101FFF00D80C002000000000E4EF040808000000E7
:10200F0000000000CC0C002000000000F0EF0408DE
:10201F000800000000000000C00C002000000000BD
:10202F0020EA04080100000000000000000000008A
:10203F0000000000000000000E0000000000000083
:10204F000000000000000000F8EF0408000000008E
:10205F0000000000A40900200000000008F00408A0
:10206F000B000000000000002C0D002000000000FD
:10207F0014F004080B00000000000000200D0020E9
:10208F000000000020F0040807000000000000001E
:10209F00180D0020000000002CF0040807000000BD
:1020AF0000000000100D00200000000038F00408B0
:1020BF000700000000000000080D002000000000D5
:1020CF0044F004080800000000000000FC0C002091
:1020DF00000000004CF004080800000000000000A1
:1020EF00F00C00200000000020EA040801000000AE
:1020FF0000000000000000000000000000000000D1
:10210F000E000000000000000000000000000000B2
:10211F0054F004080000000000000000A409002093
:10212F000000000060F0040807000000000000003D
:10213F00780D00200000000068F004080700000080
:10214F0000000000700D00200000000070F0040877
:10215F000700000000000000680D002000000000D4
:10216F0054E204080700000000000000600D00208A
:10217F00000000005CE204080700000000000000FF
:10218F00580D00200000000064E204080700000062
:10219F0000000000500D00200000000078F004083F
:1021AF000700000000000000480D002000000000A4
:1021BF0080F004080700000000000000400D002020
:1021CF000000000088F00408070000000000000075
:1021DF00380D00200000000020EA04080100000074
:1021EF0000000000000000000000000000000000E0
:1021FF000E000000000000000000000000000000C2
:10220F000000000075A20308800D0020FD8500204E
:10221F001C000000FCA10408FC85002000C8010080
:10222F00FA850020E803D007010000004F4D4E490A
:10223F0042555346340000009B85002000030100E7
:10224F009A85002000030100BDA1030895A1030892
:10225F005C0E002051A1030805A10308D40E002035
:10226F00FDA10308E5A10308880F002071A0030852
:10227F0025A00308941200208BA20308A5AE030823
:10228F0070130020719E030800000000C01300208F
:10229F005DC80308F5A403089C140020B1A203082D
:1022AF00000000005015002055A3030825A30308C4
:1022BF00DC150020E1A3030825A403087C160020E9
:1022CF000A87002001060100F1A20308C5A2030836
:1022DF00BC17002085A3030849C503084818002030
:1022EF0051A40308A5C5030810190020008700207A
:1022FF000103010090F0040800000000000000003E
:10230F0000000000000000009CF00408080000001E
:10231F0000000000201A002000000000A4F00408B4
:10232F000700000000000000181A00200000000045
:10233F00B4F004080D000000000000000C1A00208B
:10234F0000000000C0F0040803000000E9C6030805
:10235F00001A00200000000020EA0408010000001D
:10236F00000000000000000000000000000000005E
:10237F000E00000000000000000000000000000040
:10238F00C8F004080000000000000000000000007A
:10239F0000000000D8F004080A0000000000000050
:1023AF0058E6040800000000E0F004080A000000EE
:1023BF0000000000D2AC040800000000E8F00408A0
:1023CF000A000000000000008687002000000000C7
:1023DF00F0F004080A000000000000002C1A002092
:1023EF000000000020EA04080100000000000000C7
:1023FF000000000000000000000000000E000000C0
:10240F00000000000000000000000000F8F00408C9
:10241F0000000000000000000000000000000000AD
:10242F0004F1040803000000E9C60308601A002045
:10243F000000000010F1040803000000E9C60308C3
:10244F00541A00200000000018F1040803000000D7
:10245F00E9C60308481A00200000000020F1040814
:10246F00050000000000000099850020000000001A
:10247F0028F104080700000000000000401A0020A7
:10248F000000000034F10408070000000000000005
:10249F00381A00200000000020EA040801000000A4
:1024AF00000000000000000000000000000000001D
:1024BF000E000000000000000000000000000000FF
:1024CF0040F10408000000000000000000000000C0
:1024DF000000000038E7040803000000E9C6030805
:1024EF00901A00200000000054F1040803000000BF
:1024FF00E9C60308CC070020000000005CF10408C7
:10250F0003000000E9C60308841A00200000000041
:10251F0064F1040803000000E9C60308781A0020DC
:10252F000000000020ED040803000000E9C60308C6
:10253F006C1A00200000000020EA040801000000CF
:10254F00000000000000000000000000000000007C
:10255F000E0000000000000000000000000000005E
:10256F0070F10408000000000000000000000000EF
:10257F00000000007CF1040807000000F1C503080B
:10258F00EC1A00200000000044ED040803000000D6
:10259F00E9C60308E01A00200000000088F10408D3
:1025AF0003000000E9C60308D41A00200000000051
:1025BF0090F1040803000000E9C60308C81A0020C0
:1025CF000000000098F1040807000000D5C50308BB
:1025DF00C01A002000000000E8E10408030000001A
:1025EF00E9C60308B41A002000000000A4F1040893
:1025FF0003000000E9C60308A81A0020000000002D
:10260F00B0F1040803000000E9C603089C1A00207B
:10261F000000000020EA0408010000000000000094
:10262F000000000000000000000000000E0000008D
:10263F0000000000000000000000000045A2030899
:10264F0015A20308F41A0020C1A40308000000001B
:10265F00801B0020E1A00308BDA003080C1C002074
:10266F000000000000000000C01C002099A4030817
:10267F000DC60308601D0020BCF104080000000017
:10268F00000000000000000000000000C8F1040876
:10269F0003000000E9C603086C1E002000000000C4
:1026AF00D0F1040803000000E9C60308601E0020F3
:1026BF0000000000F0D2040803000000E9C6030880
:1026CF00541E002000000000DCF10408030000008D
:1026DF00E9C60308481E002000000000E8F10408C6
:1026EF0003000000E9C603083C1E002000000000A4
:1026FF00F0F1040802000000CDC80308000000003C
:10270F0000000000F8F1040802000000CDC8030823
:10271F00010000000000000004F2040802000000A5
:10272F00CDC80308020000000000000000000000F8
:10273F000E0000000000000000000000000000007C
:10274F007885002088136F17010000007A8500201C
:10275F0088136F170000000010F20408000000003B
:10276F0000000000000000000000000020F204083C
:10277F0008000000000000004C1F002004000000B3
:10278F002CF204080800000000000000401F002089
:10279F0000000000D4ED04080400000005C3030886
:1027AF00000000000000000020EA04080100000003
:1027BF00000000000000000000000000000000000A
:1027CF000E000000000000000000000000000000EC
:1027DF007685002088136F1701000000A84B00209A
:1027EF0088136F1700000000B59F0308000000005A
:1027FF00581F00205D8A00200100000070A204080D
:10280F00AA4B0020010000007CA20408A04B00206E
:10281F000200000084A2040842C90020000000004A
:10282F000000000040C90020000000000000000070
:10283F003EC9002000000000000000003CC900203D
:10284F0000000000000000003AC900200000000056
:10285F000000000038C90020000000000000000048
:10286F002C010020000000000000000075850020F2
:10287F000200000090A2040868F2040800000000A3
:10288F0000000000000000000000000020F204081B
:10289F000800000000000000DC1F00200400000002
:1028AF002CF204080800000000000000D01F0020D8
:1028BF0000000000D4ED040804000000859F030809
:1028CF00000000000000000020EA040801000000E2
:1028DF0000000000000000000000000000000000E9
:1028EF000E000000000000000000000000000000CB
:1028FF0078F2040800000000000000000000000053
:10290F000000000088F204080D00000055C4030801
:10291F000C2000200400000094F204080D000000B9
:10292F00DD9F03080020002004000000A0F204082F
:10293F000D00000019C40308F41F00200000000060
:10294F00ACF20408030000000DB40308E81F0020D8
:10295F0008000000B8F2040803000000E9C60308ED
:10296F00102300200000000020EA040801000000EE
:10297F000000000000000000000000000000000048
:10298F000E0000000000000000000000000000002A
:10299F0018EA04080000000000000000000000001A
:1029AF00000000008AE90408040000001DC30308AA
:1029BF00000000000000000020EA040801000000F1
:1029CF0000000000000000000000000000000000F8
:1029DF000E000000000000000000000000000000DA
:1029EF000CF30408000000000000000000000000CD
:1029FF0000000000C0D404080D000000000000001B
:102A0F006C200020040000001CF3040808000000E4
:102A1F0000000000602000200400000028F30408DC
:102A2F0008000000000000005420002004000000F7
:102A3F0030F30408080000000000000048200020C8
:102A4F000400000038F30408080000000000000034
:102A5F003C2000200400000040F3040808000000A0
:102A6F0000000000302000200400000048F304089C
:102A7F0008000000000000002420002004000000D7
:102A8F0050F3040808000000000000001820002088
:102A9F000400000020EA040801000000000000000C
:102AAF000000000000000000000000000E00000009
:102ABF000000000000000000000000009D9F0308C0
:102ACF00000000007820002000000000000000003F
:102ADF00F0200020000000000000000090210020E6
:102AEF00A64B0020040000009CA20408A44B002069
:102AFF00E0150C1700000000A34B00200800000099
:102B0F00EC8E0408A24B002005000000B0A20408C0
:102B1F000000000000000000E0210020080000007D
:102B2F000000000100000000000000000000000095
:102B3F0043A30108AFA201081DB001080000000067
:102B4F000D9E010865A1010847A20108D3A0010845
:102B5F000000000000000000019E0108E59D010833
:102B6F00E39D0108E19D0108DB9D0108D99D010846
:102B7F00DF9D0108DD9D0108F59D0108E79D010816
:102B8F00F5AF010809B00108E1AF0108CDAF0108A9
:102B9F00B7AF010801000000006002401060024062
:102BAF000000000000000000000B0000000000000B
:102BBF00000000000000000000600240286002409A
:102BCF000100000000000000060C000000000000E3
:102BDF000000000000000000006002404060024062
:102BEF000200000000000000100D000000000000B7
:102BFF00000000000000000000600240586002402A
:102C0F000300000000000000160E0000000000008E
:102C1F0000000000000000000060024070600240F1
:102C2F000400000000000000200F00000000000062
:102C3F0000000000000000000060024088600240B9
:102C4F00050000000000000026100000000000003A
:102C5F00000000000000000000600240A060024081
:102C6F00060000000000000030110000000000000E
:102C7F00000000000000000000600240B860024049
:102C8F000700000000000000362F000000000000C9
:102C9F0000000000000000000064024010640240C9
:102CAF0000000000000000000038000000000000DD
:102CBF000000000000000000006402402864024091
:102CCF0001000000000000000639000000000000B5
:102CDF000000000000000000006402404064024059
:102CEF000200000000000000103A00000000000089
:102CFF000000000000000000006402405864024021
:102D0F000300000000000000163B00000000000060
:102D1F0000000000000000000064024070640240E8
:102D2F000400000000000000203C00000000000034
:102D3F0000000000000000000064024088640240B0
:102D4F000500000000000000264400000000000005
:102D5F00000000000000000000640240A064024078
:102D6F0006000000000000003045000000000000D9
:102D7F00000000000000000000640240B864024040
:102D8F0007000000000000003646000000000000B1
:102D9F0000000000000000000000803FA025002080
:102DAF000000000000000000000000000000000014
:102DBF000000000000000000000000000000000004
:102DCF0000000000000000000000000000000000F4
:102DDF0000000000000000000000000000000000E4
:102DEF0000000000000000000000000000000000D4
:102DFF0000000000000000000000000000000000C4
:102E0F004300000000000000000000000000000070
:102E1F0000000000000000000000000000000000A3
:102E2F004300000000000000000000000000000050
:102E3F000000000000000000000000000000000083
:102E4F004300000000000000000000000000000030
:102E5F000000000000000000000000000000000063
:102E6F004300000000000000000000000000000010
:102E7F000000000000000000000000000000000043
:102E8F0043000000000000000000000000000000F0
:102E9F000000000000000000000000000000000023
:102EAF0043000000000000000000000000000000D0
:102EBF000000000000000000000000000000000003
:102ECF0043000000000000000000000000000000B0
:102EDF0000000000000000000000000000000000E3
:102EEF007F6404085B64040800000000B6F4040863
:102EFF0086E9040817B3040817B3040817B30408C6
:102F0F0017B3040817B3040817B3040817B304085A
:102F1F0017B3040817B30408FFFFFFFFFFFFFFFFFE
:102F2F00FFFFFFFFFFFF000001004153434949002E
:102F3F000000000000000000000000000000000082
:102F4F000000000000000000000041534349490009
:102F5F000000000000000000000000000000000062
:0C2F6F0000000000000000000000000056
:108000002DE9F043077B91F800C0DFF8B8E0476145
:108010000023C0E90677C0E90877C0E90A77C0E91C
:108020000C77C0E90E73C0E91033C0E91233C0E920
:108030001433C0E916336FEA0C0C5FFA8CFC03664C
:108040009846142405254CFA05F303F00103002B90
:1080500014BF19260A26434415F0010F04EB06014C
:108060005FFA83F889B214BFB9464FF0000923467E
:1080700000EB830201339BB29942C2F81490F7D10E
:10808000013D34446A1CA4B2DDD118F0010F14BFC5
:1080900019230A23E518ADB2224600EB8201013212
:1080A00092B2AA424F61F8D123449BB21A1D00EB51
:1080B000820201339BB200215160AEF800300361AF
:1080C000BDE8F08370270020254B5B880B332DE93A
:1080D000F04F8A4601F1060B1FFA83F94FF00108B1
:1080E000002100251AF801EB2C464A460127A2F18F
:1080F0000B039BB207E001339BB2B0F80CC0C6F88B
:1081000014C093420AD000EB8306002FF3D100EB9A
:10811000830601339BB293427761F4D1043300EBC1
:1081200083030134092D5960E4B20CD0092C14D01A
:1081300008FA05F313EA0E0F14BF012700270C32CB
:1081400092B20135D3E709F17809DA451FFA89F9C6
:10815000C7D1034B5980BDE8F08F0027EFE700BF80
:10816000702700202DE9F047DFF860E0BEF804300A
:1081700004338A461FFA83FC01F1090801271AF823
:10818000016BE1460025A9F1040307FA05F29BB251
:108190003240C2B1818900EB830401339BB24B456D
:1081A0006161F6D101350433082D1FFA83F9EAD154
:1081B0000CF1200CC2451FFA8CFCE0D10023AEF874
:1081C0000430BDE8F0871146E5E700BF70270020C6
:1081D00010B5027C01681F2A4FF020030ED94C68AD
:1081E000203A93401C4208D00B4A40680024147087
:1081F000026822F001020260CB6010BD0C6893405F
:108200001C42FAD0044A406800241470026822F02C
:10821000010202608B60F0E77A730020436A826992
:10822000D154436A0169826B01338B4228BF00231A
:108230004362DAB1EFF31183502282F31288826B2A
:108240001168C9070ED470B45468FCB9D0E909515B
:108250008D4211D1012280F85C20DBB283F31188BA
:1082600070BC7047DBB283F311887047826DD368AE
:1082700043F08003D360704786690E44D6600ED900
:10828000691A51608562002180F85C10116841F024
:108290000101DBB2116083F3118870BC704705697E
:1082A000691A51608462EEE7034610B4446BD968E2
:1082B000406954B1DA6C8C1A013A005D5DF8044BE8
:1082C00008BF0A46C0B2DA6470471A6A805C01329D
:1082D0008A4228BF2246C0B21A625DF8044B70473A
:1082E000836B13B190F85C007047D0E90903181A4A
:1082F000B0FA80F040097047D0E909120369914251
:1083000038BFC9188A1A816B013B19B149680A4400
:108310009A4201D2981A704700207047436B43B1CC
:10832000C26C5B689A4291BF981AC0689B1AC018C9
:108330007047D0E907239A422FBFD01AC06880182F
:10834000C01A70470A4B30B503F1140493F90020AA
:108350005D78072AC8BF143A811804330D7313F8E7
:10836000025C855413F8012C0A769C42EED130BD94
:108370008C6D040803682DE9F041DD691DB12B46C1
:10838000BDE8F0411847002A174611DD04460E46A5
:108390000F4400E023689B68204698470028F9D0E6
:1083A000236816F8011B1B6820469847BE42F1D18E
:1083B000BDE8F08100232522027043708370C370F2
:1083C000704700BF0028F0B403DA2D230B70404241
:1083D0000131092804464FF0010307DD03EB830355
:1083E0005B00B0FBF3F2092AF8D883B10F48A0FB79
:1083F0000326B4FBF3F2092A02F1570C02F130070D
:1084000009DD03FB1244F30801F801CBEFD100238F
:108410000B70F0BC704703FB1244F30801F8017BBA
:10842000E5D100230B70F0BC704700BFCDCCCCCCA5
:10843000884270B44FF0010442D301FB04F4B0FB56
:10844000F4F58D42F9D2ECB142BB092D04FB1500C5
:1084500005F1570605F130020EDDB4FBF1F403F827
:10846000016B7CB1B0FBF4F5092D04FB150005F19F
:10847000570605F13002F0DCB4FBF1F403F8012BF0
:10848000002CEFD100221A7070BC704703F8016B0A
:10849000B4FBF1F4002CF5D0B0FBF4F5092D04FB8E
:1084A000150005F1370605F13002EFDCB4FBF1F4FD
:1084B00003F8012B002CEFD100221A7070BC70471A
:1084C0000546002AEAD1C0E72DE9F04714461D46CB
:1084D000064600234FF47A72204629463DF098FB69
:1084E000DFF848814B4A4C4F88FB00310144C317E9
:1084F00082FB002CC3EB611188FB012887FB00275E
:108500008444464AC3EBEC2CC1EB011E82FB0C29D0
:10851000A0EB8E0E0744424A86F806E0C3EB2747DD
:108520004FEAEC7E08EB010ACEEBA90E82FB078234
:108530004FEAE1780EEB4E0EC8EB6A18ACEBCE0CAE
:10854000C8EB0818DFF8E8E086F804C0A1EB880162
:1085500071718EFB0010F917C1EBE21240F2B551B8
:1085600001FB1272C3EBE050B2F5896F4FEA80074E
:108570003FDA40F2DA239A4243DCB2F5B77FB4BF68
:108580004FF0000E4FF0010E4FEA4E08254B08EB5E
:108590000E0103EBC1031FFA8EFC588D224908EB34
:1085A0000E0301EBC30116310B2301E031F8020D7C
:1085B00090421BDD013BF9D11A4BC64403EBCE0EB2
:1085C0000123BEF81400B37007F2B2770132121A19
:1085D000BC44F270A6F800C0204629464FF47A72D7
:1085E00000233DF015FB3281BDE8F0870133DBB29B
:1085F000E9E74FF0030CE64640F296504FF00608CC
:10860000CCE74FF0020CE64640F229404FF0040858
:10861000C4E700BFC5B3A29107452EC2ABAAAA2AE0
:1086200073B06D168C6D0408A06D04088988888865
:10863000792D031103685A1C02601970704700BF3E
:108640002DE9F047089C2578002B804689460CBF11
:108650004FF0200A4FF0300A661C25B3002A26DDB1
:10866000334601E0024698B113F8011B501E002961
:10867000F8D1971E60B13D46013D51464046C8477E
:108680006B1C002BF8DC257827EAE770013045B138
:10869000041B29464046C847301916F8015B002DD7
:1086A000F7D1BDE8F087002A03DC2846F9E700206F
:1086B000EEE7571EDFE700BFD0E9012300EB83019F
:1086C00001339342D0ED037A81ED040A836004BF45
:1086D0000023836000EB830393ED047A036870EE5C
:1086E000277A9A42C0ED037A77EEC77AC0ED037A13
:1086F0000CDA013307EE103AF8EEC76AB7EE007AEB
:1087000087EEA60A036030EE070A704707EE102ACC
:10871000B8EEC77A87EE870A704700BF90ED057AFA
:1087200090ED004AD0ED066AD0ED014AD0ED047A12
:1087300090ED035AD0ED025AA4EE007AB0EE406AF2
:10874000B0EE470AB0EE667AA4EE867A67EEC07A9B
:10875000A5EE407AE5EE867A80ED057AC0ED067AE0
:10876000704700BFD0ED057A90ED013AD0ED003AA8
:10877000D0ED064A90ED024A90ED077A90ED035A4B
:1087800090ED086AD0ED045AC0ED067AF0EE406A2A
:1087900027EE830AC0ED056AA3EEA60A80ED087AEB
:1087A000A4EE240AA5EE470AA5EEC60A80ED070A44
:1087B000704700BFD0ED007A90ED017A30EE670A85
:1087C000E7EE007AB0EE670AC0ED007A704700BFAE
:1087D000704700BF0A44914215D030B40139551E8C
:1087E00041F2210211F8014F082380EA0420040419
:1087F0004CBF82EA40004000013B80B2F7D18D427D
:10880000F0D130BC704770472322032302704370BD
:1088100070470378407840EA032010FB01F04FF4E2
:10882000807190FBF1F000F30F0000B270476D4BC8
:108830002DE9F04F9C686C4BB3F80AE0B3F8048064
:108840009A894FEA0E2AB4EB0A044FEA1E6B4FF0E6
:10885000000587B065EB0B05CDE900450746009C98
:108860001889019EA0FB044500FB0655E00940EA7B
:1088700045604FEA08448C46E9114FEA184510EB71
:108880000408D888009C41EB0509CDE90489A0FBC8
:108890000445B3F8028000FB0655200A40EA056053
:1088A0004FEAC83429124FEA584510EB040841EB4F
:1088B00005090099A2FB010102FB06114FEAD05AFB
:1088C0004AEA412A1AF5FA634FEAE15B4BF10004E8
:1088D000B3F5FA6FCDE9023474F10003414E64DA66
:1088E0000524AAFB040104FB0B1100FB0BF40AFB9B
:1088F0000144DDE90423A0FB0A0121444D104FEAA5
:108900003004121B4FEA900463EB050344EA8174C0
:10891000B8EB0408CDE90423DDE9023433484FEA1B
:10892000A10569EB05094FF0FF31834274EB0103A8
:1089300026DA40F6AC501AEB00024FF000014BEB88
:10894000010302FB03F1A2FB022303EB4103D4006A
:10895000DD00101B45EA527563EB0501DDE90445B6
:1089600024184D41CDE904450B24A2FB040104FB6E
:10897000031149104FEA3000B8EB000869EB010918
:10898000DDE900325343009ADDE90201A2FB02ABAC
:108990000BEB430B4FEADA7242EA4B02801A4FEAC2
:1089A000EB7361EB0301CDE9020197B1F168A1FB23
:1089B000082301FB0933540D5D1544EAC324DDE9A6
:1089C0000423A21A65EB03031D46D30B43EA454378
:1089D0003B60BCF1000F02D0029BCCF8003007B026
:1089E000BDE8F08F70270020E03B002024FAFFFF55
:1089F0002DE9F04FDFF8DCC1754CDCF8105022880F
:108A0000B4F90AA0C2EB25135200C2EBE502B4F997
:108A100002505B436A43B4F904501B135D43AD132A
:108A200005EBE225B5F5FA324FEAE57B85B04BF16F
:108A3000FF33CDE90023DDE900325343009AA561FD
:108A4000A2FB0289CDE90201B4F90820019900983E
:108A500009EB43095143D31700FB0311A2FB002389
:108A60000B444FEAEA7B0AFB09F11F0308FB0B13D7
:108A7000AAFB080119444FEA102A4AEA016A1603C0
:108A80004FEA212B47EA12571AEB0602E6884BEB16
:108A9000070312F1000A43F5004BAAFB060106FB8F
:108AA0000B114A10CB1752EA030100F08E80B4F983
:108AB0001060009806FB09F1F71708FB0711A6FBE9
:108AC00008673944B4F90E808B4601994FEAE8797A
:108AD00008FB01F100FB0911A8FB00898944DCF8BF
:108AE00014104FEA4947C1F5801C47EAD837B2460F
:108AF0004FEA4846B4F90C801AEB060A66464BEB7F
:108B0000070BF7174FEAC806019600260096F907EB
:108B1000DDE900674FEACC7016EB0A0647EB0B075E
:108B200041EA5C01801B61EB070140F6354C894648
:108B3000A0FB0C010CFB09113DF06AF8B4F91620FA
:108B4000B4F914A04E13470B47EAC14702FB06FCD9
:108B5000D31707FB03CCA2FB07236344564307FB51
:108B60000366A2FB07233344560E46EAC3163218A7
:108B70004FEA636747EB010380460AFB01F14FEAC6
:108B8000EA7B08FB0B17AAFB08013944C60C46EA2E
:108B9000413612EB06084FEAE147B4F9122043EBE5
:108BA00007094FEA182141EA096113010B44029AAF
:108BB0000AB11B0A1360039B23B105EB85058035C1
:108BC0002D121D6005B0BDE8F08F0023EFE700BF58
:108BD000F43B002070270020704770472DE9F041DA
:108BE000334B344E1A8B7489B6F91450B6F904809D
:108BF000B6F90E70B6F920C0DB69121B34895443F4
:108C0000E213B6F912401544E40294FBF5F4B6F908
:108C100002501444A4F57A6E0EFB0EF20EFB05F51D
:108C20000EFB08FEB6F90C80F4611213574302FBE9
:108C300008F2121402EB6E32ED1205EBE727023256
:108C4000B6F90050B6F806E0921002F5004207EBC4
:108C500085070EFB02F207FA0CF74FEAD23E023705
:108C60004CF25032A3EBA70742FA0CF37B4355BFFB
:108C70005B00B3FBFEF3B3FBFEF35B0078B11A12AB
:108C800002FB02F540F6DE326A430B4D12145D43DF
:108C900002EB254202F6CF6203EB2213036021B1FF
:108CA0000A235C43083424110C60BDE8F08100BF46
:108CB00070270020BC3B002043E3FFFF4FF400631C
:108CC00083827047012380F848307047F0B4037CFA
:108CD000456902681F2B37D9203B202154689940F1
:108CE0000C4223D010249C40D160D4605168D940FC
:108CF000CE074ED4EFF31183502282F31288AA6B71
:108D00001168C90709D45468002C52D1D5E909610A
:108D10008E4243D1012285F85C20DBB283F31188B7
:108D2000037C02681F2B194614D9203B0821506888
:108D30009940084200D0D1600421506801FA03F341
:108D4000184223D1F0BC7047202416689C4026426C
:108D50000FD11946082310688B40184200D0936049
:108D60000423106803FA01F10842EBD09160F0BCD3
:108D7000704710219940946091601168D940CC07E8
:108D8000B8D5012101FA03F39360B3E7D360F0BCD7
:108D90007047012101FA03F3D360ABE7AF690F44D9
:108DA000D7600ED82E69711A5160AC62002185F827
:108DB0005C10116841F00101DBB2116083F311888E
:108DC000AEE7711A5160AE62F0E700BF70B4037C89
:108DD00001681F2B26D9A3F1200520224C68AA4048
:108DE000224214BF01220022D2B142691B481C4C0E
:108DF00002EB420200EB4212257854682068CDB99C
:108E0000E56856892C6824F001042C6082891F2BA8
:108E100022EA060282811AD8202202FA03F38B602A
:108E200070BC704720220C689A40224214BF012275
:108E30000022D9E7A469226822F001022260828917
:108E400022F480721204120C1F2B8281E4D9A3F148
:108E5000200220239340CB6070BC704728B00020D4
:108E600024B00020844B1A78002A00F00481834B40
:108E70001978834B30B4002965D11868B3F82C51A8
:108E800041628489012A44EA05048481A3F82C11F3
:108E900057D0D3F83001B3F85C5241628489022A7A
:108EA00044EA05048481A3F85C124AD0D3F8600236
:108EB000B3F88C5341628489032A44EA050484810F
:108EC000A3F88C133DD0D3F89003B3F8BC5441629F
:108ED0008489042A44EA05048481A3F8BC1430D0B0
:108EE000D3F8C004B3F8EC5541628489052A44EAFA
:108EF00005048481A3F8EC1523D0D3F8F005B3F86A
:108F00001C5741628489062A44EA05048481A3F837
:108F10001C1716D0D3F82007B3F84C584162848947
:108F2000072A44EA05048481A3F84C1809D0D3F831
:108F30005028B3F87C495162908920439081A3F86E
:108F40007C1930BC70475C681989616025681868B5
:108F500045F0010540F20D312560A0F848108489E4
:108F6000012A44F480748481EBD0D3F83441B3F8FF
:108F70003851D3F830016560256845F0010525605A
:108F8000A0F848108489022A44F480748481D8D0DF
:108F9000D3F86442B3F86852D3F86002656025687C
:108FA00045F001052560A0F848108489032A44F49F
:108FB00080748481C5D0D3F89443B3F89853D3F820
:108FC00090036560256845F001052560A0F848100C
:108FD0008489042A44F480748481B2D0D3F8C444D0
:108FE000B3F8C854D3F8C0046560256845F001059E
:108FF0002560A0F848108489052A44F4807484818F
:109000009FD0D3F8F445B3F8F855D3F8F005656070
:10901000256845F001052560A0F848108489062AD6
:1090200044F4807484818CD0D3F82447B3F8285753
:10903000D3F820076560256845F001052560A0F894
:1090400048108489072A44F4807484813FF479AFFE
:10905000D3F85428B3F85808D3F850385060106843
:1090600040F001001060A3F848109A8942F4807221
:109070009A8130BC7047704728B3002024B000208C
:109080002CB3002010B4037C02681F2B09D9203BAD
:109090002021546801FA03F31C4214D15DF8044BFB
:1090A00070472021146801FA03F31C42F6D00C49E2
:1090B000406800240C7001685DF8044B21F0010148
:1090C0000160936070470649406800240C70016895
:1090D0005DF8044B21F001010160D360704700BFCF
:1090E000E14A00202DE9F041C40023189B00BA4951
:1090F000CA585268958AADB2EFB2FE070B4465D4E8
:10910000BE073AD5BFF35F8F1D7EEDB2012D00F093
:10911000C480B24E138BBFF35F8F231801EB830320
:109120001D7E022D00F0D980231801EB83031D7EE4
:10913000032D06D19B7E23B196F82130002B40F001
:109140002681938896F920C043F480639380231886
:1091500001EB83031B7E013363450CD196F822306B
:10916000002586F82150002B40F09080204401EB30
:10917000800000234375BDE8F081984E17F0040F7E
:1091800096F920C051D117F0400700F0BB80178A34
:109190001D6AFFB205F80C705FFA8CF56F1C93F82E
:1091A00018E07BB2DF1CBE4586F820309C4600F0FC
:1091B0001781271801EB87073F7EBB42C7D105F116
:1091C000020C4FFA8CFC86F820C0C0E71588834E4D
:1091D00025F400652D042D0C1580158845F4806557
:1091E00015809D7E002786F82070002D40D096F8CF
:1091F0002150002D39D0231801EB830301251B7E5C
:1092000086F82150022B03D1138843F400631380A6
:10921000231801EB83039B7D43F001031382204459
:1092200001EB8000037EBDE8F0819F7E96F821501F
:109230004FF0010E86F822E0002F60D0002D7DD186
:10924000231801EB83035B7E002B00F0A9801388B9
:109250000CF1010C4FFA8CFC43F4007386F820C02B
:1092600013801388DF05FCD471E7DB7DFF2BC2D0B0
:10927000231801EB83039D7D05F0FE051582DB7D40
:10928000FF2BCCD0FF2386F82030C8E7938823F447
:1092900040731B041B0C938068E79B7E4F4E002B92
:1092A0003FF438AF96F82130002B3FF433AF1388EA
:1092B00023F480631B041B0C1380BFF35F8F138B9D
:1092C000138886F8225043F400731380938896F92C
:1092D00020C043F48063938039E79B7E002B3FF4EA
:1092E00023AF96F82130002B3FF41EAF138896F978
:1092F00020C023F480631B041B0C138017E0002D97
:109300009ED0A4E72D067FF522AFBCF1FF3F6ED0C3
:10931000DD6915F80C5015820CF1010C1D7E4FFA19
:109320008CF39D429C4686F820307FF410AF9388E2
:1093300023F480631B041B0C938008E71F7ED3F883
:1093400020805FFA8CF5AE44022F4FFA8EFE17880C
:109350002ED927F480673F043F0C1780178AFFB28D
:1093600008F80C701788D3F820C047F400731380F6
:10937000138ADBB20CF80E30938805F1020C4FFA19
:109380008CFC43F4806386F820C0938069E793885F
:1093900096F920C023F480631B041B0C9380D6E64F
:1093A0001388012543F48073138086F8215058E711
:1093B00047F400771780178AFFB208F80C70178AF5
:1093C000D3F8208005F1030C4FFA8CFCFBB286F831
:1093D00020C008F80E3044E73882002070270020B3
:1093E000978827F480673F043F0C9780E1E6DD7D96
:1093F00015829D7E86F820701DB91B7E002B7FF4A0
:109400000EAF938823F480631B041B0C938006E744
:109410003F4B9A89D989914210B524BF00229A8185
:10942000598A1A8A914224BF00221A82D978394A6D
:1094300092F8502081B107290ED0374C012000212D
:109440000A2A20709870D97159D00C2A01D00A2AA2
:109450005BD0DFED327A0AE00A2AD97952D0DFED0B
:10946000307A9FED307A0C2A18BFF0EE477A9FEDE4
:109470002E7A002918BFF0EE477A2C4CA278062AE3
:1094800097BF2B49DFED286A01EB8201D1ED1D6A00
:10949000217971B1013A032A0AD8B7EE000A80EEA9
:1094A000260A3DF001FA2388984228BF18462080FA
:1094B00010BD9B78184907EE103A0A78B8EEC77AC3
:1094C00067EE277A07EE102AB8EEC77A27EE277ADA
:1094D000F4EEC76AF1EE10FAEADD86EEA77AFDEE49
:1094E000C77A17EE903A102BA8BF1023012BB8BFF4
:1094F0000123DBB29A4238BF1A460A7010BDDFED75
:109500000D7ABAE7DFED0C7AB1E7DFED0A7AAEE764
:1095100080A50020A0A500201E3600206F12833AEF
:109520000AD7A3396F1203396F12033800B0002035
:109530008C6D04080F506E3A5304E93838B50E4C60
:109540000E4DAC4206D26168204614342CF064FD06
:10955000AC42F8D30A4A0B4B0B4C0C481060022566
:1095600000220B4925701A705A700A480860BDE83D
:10957000384033F001BF00BF90010008E00600084A
:10958000C04D002030A40020048F00200C86002055
:10959000C44D00201C870020054B10B55A6A054CAD
:1095A0002178501C09B95A6210BD0246F8E700BF85
:1095B000702700207A730020F0B50C2934D8DFE83A
:1095C00001F08A3333335F333333343333330700BB
:1095D000048C9689B2F802C01788744D24F4805424
:1095E0002404240C0484038C8488818B23F400538A
:1095F00021F4E6411B0409041B0C46EA0C06090C85
:1096000043EA063341EA0721A8429BB2A4B289B2D9
:1096100000F09E8005F58065A84200F09980926870
:109620008480818302640384F0BD048C9589B2F840
:1096300002E017885D4E24F480742404240C048412
:10964000038CB0F804C0818B23F400731B0421F059
:10965000730145EA0E041B0C090443EA0423090CB8
:10966000B0429BB21FFA8CF541EA07015BD0504C27
:10967000A04258D0926885808183C2630384F0BD84
:10968000048C9589B2F802E0B2F800C0474E24F08D
:1096900010042404240C0484038C8788018B23F099
:1096A000200321F4E6411B0409041B0C45EA0E04C7
:1096B000090C43EA041341EA0C21B0429BB2BFB249
:1096C00089B25BD03A4CA04258D09268878001831F
:1096D00082630384F0BD048C9589B2F802C01788B8
:1096E000324E24F001042404240C0484018C848868
:1096F000038B21F0020123F0730309041B04090CFE
:1097000045EA0C051B0CB04241EA0501A4B243EA4C
:10971000070324D0264DA84221D092688480038379
:1097200042630184F0BDD489168A578A23F400630A
:1097300043EA04234FF6FF341C40938825F4405538
:109740003E4344EA032345EA06149BB2A5B291E7DF
:10975000158A24F4804444EA8514A4B25FE7D689CC
:10976000158A578A21F008013143968824F4407401
:1097700021F004013D4331432C43CEE7D489168ABE
:10978000B2F812C023F0800343EA04134FF6BF740B
:109790001C40938827F4406546EA0C0644EA03130C
:1097A00045EA86049BB2A7B28FE700BF00000140E4
:1097B000000401402DE9F84FDFF864828E488F4C99
:1097C0008F4E904FDFF85C92DFF85CA24FF4A072EE
:1097D00000213CF08FFE45468B4A8C48DFF84CC296
:1097E000DFF84CE208F5FC7134E0B3F1804F00F093
:1097F000CB80A34200F0CF80B34200F0DB80BB42BD
:1098000000F0DB80634500F0DB80734500F0DB8017
:109810004B4500F0DB80534500F0DB80DFF814B2ED
:109820005B4500F0D9800BF5806B5B4500F0D7807D
:10983000ABF5983B5B4500F0D5800BF5806B5B4545
:1098400000F0D3800BF5806B5B4500F0D1802435B0
:10985000A9420BD02B689342C7D14FF0010B436C48
:10986000243543EA0B03A9424364F3D1684F694EA0
:109870004FF0030A4FF0020998F80630002B7CD015
:1098800098F804301C09013C032C03F00F0374D832
:1098900037F8140040FA03F2D2076ED54FF0010BEF
:1098A0000BFA03F3013B18403CF002FA5A4B1B5DE4
:1098B000184416EBC00460D056F83030574898F87A
:1098C000081003F13F4202F57E02920A825C02F028
:1098D0001F005209032A0BFA00FB65D0042A5DD051
:1098E000022A04D14948426C4BEA02024264B4F8AD
:1098F00004C0BCFA8CF2C2F11F0292B2D00803EB92
:10990000800002F00702046A92004FF00F0E0EFA78
:1099100002FE24EA0E040462046A01FA02F22243FF
:1099200002624FF0010E00220EFA02F434EA0C013A
:1099300020D15000D3F800B00AFA00F1C9430BEA75
:10994000010BC3F800B0D3F800B009FA00F040EA08
:109950000B0018609868084098609868986058688C
:1099600020EA04045C6058685860D8680140D960F7
:10997000D968D9600132102AD6D108F124084545AA
:109980007FF47AAFBDE8F88F4FF0010B036C43EA28
:109990000B0303645BE74FF0020BF7E71B48026B16
:1099A0004BEA02020263A2E71848026C4BEA020289
:1099B00002649CE74FF0040BE8E74FF0080BE5E783
:1099C0004FF0100BE2E74FF0200BDFE74FF0020BF8
:1099D00045E74FF4803B42E74FF4003B3FE74FF44D
:1099E000802B3CE74FF0400BD0E74FF0800BCDE7EA
:1099F0004FF4807BCAE700BF28910020000400409C
:109A000000080040000C0040000001400038024007
:109A10002CA504081C8F002034A50408D0A204083B
:109A200008A3040800040140004001400010004069
:109A3000001400400044014000B9704703682DE95C
:109A4000F04F03F13F4404F57E04534EA40A012570
:109A5000345D04F01F066409032C05FA06F500F0D6
:109A60009580042C00F08D80022C45D08588B5FAB5
:109A700085F0C0F11F0080B2C40803EB840400F03D
:109A80000700266A80000F27874026EA070626621D
:109A9000276A01F003068240701E3A4301282262C1
:109AA000C1F3810EC1F300184FF000024FEA5111CB
:109AB0004FF0010C25D94FF0030E0CFA02F0A84329
:109AC00015D150001F680EFA00F4E44327401F60D0
:109AD000D3F8008006FA00F747EA08071F60DF683E
:109AE0003C40DC60DC6801FA00F02043D8600132C1
:109AF000102AE2D1BDE8F08F284C666C35436564CE
:109B0000B4E74FF003090CFA02F737EA050033D146
:109B10005000D3F800A009FA00F4E4430AEA040A6A
:109B2000C3F800A0D3F800B006FA00FA4AEA0B0A1C
:109B3000C3F800A0D3F808A004EA0A0AC3F808A0F2
:109B4000D3F808B00EFA00FA4AEA0B0AC3F808A0E4
:109B5000D3F804A02AEA07075F60D3F804A008FA44
:109B600002F747EA0A075F60DF683C40DC60DC68B8
:109B700001FA00F02043D8600132102AC3D1BDE8B9
:109B8000F08F064C266B354325636FE7034C266C3C
:109B9000354325646AE700BFD0A2040800380240BC
:109BA00003682DE9F04F03F13F4404F57E04534E62
:109BB000A40A0125345D04F01F066409032C05FA8C
:109BC00006F500F09580042C00F08D80022C46D024
:109BD0008588B5FA85F0C0F11F0080B2C40803EB98
:109BE000840400F00700266A80000F27874026EAD9
:109BF00007062662276A01F0030602FA00F0721EC9
:109C00003843012AC1F3810EC1F3001820624FEAE4
:109C100051114FF000024FF0010C25D94FF0030E07
:109C20000CFA02F0A84315D150001F680EFA00F498
:109C3000E44327401F60D3F8008006FA00F747EAA4
:109C400008071F60DF683C40DC60DC6801FA00F058
:109C50002043D8600132102AE2D1BDE8F08F284CB1
:109C6000666C35436564B3E74FF003090CFA02F7FD
:109C700037EA050033D15000D3F800A009FA00F408
:109C8000E4430AEA040AC3F800A0D3F800B006FAD5
:109C900000FA4AEA0B0AC3F800A0D3F808A004EAC5
:109CA0000A0AC3F808A0D3F808B00EFA00FA4AEA84
:109CB0000B0AC3F808A0D3F804A02AEA07075F60DC
:109CC000D3F804A008FA02F747EA0A075F60DF68E2
:109CD0003C40DC60DC6801FA00F02043D8600132CF
:109CE000102AC3D1B9E7064C266B354325636FE7CD
:109CF000034C266C354325646AE700BFD0A20408F4
:109D00000038024010B50409013C032C17D80E4B53
:109D100033F8142000F00F0042FA00F313F00103AF
:109D20000FD0012303FA00F0013810403BF0C0FFD0
:109D3000064A074B125D104403EBC00010BD002023
:109D400010BD184610BD00BF2CA5040834A504089A
:109D50001C8F00202DE9F843304D2B8AB5F80C807C
:109D600018EA030827D02E4E4FF00047B8FA88F3C0
:109D700027FA03F2D24391B21B3B08EA0208298278
:109D8000042B15D8DFE803F0372D23190300D6F88C
:109D90003C31002B39D1EB6A1FFA83F9D6F83841F0
:109DA00034B123682046494698476468002CF8D1AE
:109DB000B8F1000FDAD1BDE8F883D6F81801696B65
:109DC000036889B29847B8F1000FCFD1F3E7D6F80E
:109DD0001C01A96B036889B29847B8F1000FC5D17F
:109DE000E9E7D6F82001E96B036889B29847B8F132
:109DF000000FBBD1DFE7D6F82401296C036889B2D4
:109E00009847B8F1000FB1D1D5E703F1FF3900232E
:109E10001FFA89F9C6F83C31C0E700BF00180040BE
:109E2000289100202DE9F843304D2B8AB5F80C809D
:109E300018EA030827D02E4E4FF00047B8FA88F3EF
:109E400027FA03F2D24391B21B3B08EA02082982A7
:109E5000042B15D8DFE803F0372D23190300D6F8BB
:109E60001431002B39D1EB6A1FFA83F9D6F810416F
:109E700034B123682046494698476468002CF8D1DD
:109E8000B8F1000FDAD1BDE8F883D6F8F000696BBD
:109E9000036889B29847B8F1000FCFD1F3E7D6F83D
:109EA000F400A96B036889B29847B8F1000FC5D1D7
:109EB000E9E7D6F8F800E96B036889B29847B8F18A
:109EC000000FBBD1DFE7D6F8FC00296C036889B22C
:109ED0009847B8F1000FB1D1D5E703F1FF3900235E
:109EE0001FFA89F9C6F81431C0E700BF00400140ED
:109EF000289100202DE9F843304D2B8AB5F80C80CD
:109F000018EA030827D02E4E4FF00047B8FA88F31E
:109F100027FA03F2D24391B21B3B08EA02082982D6
:109F2000042B15D8DFE803F0372D23190300D6F8EA
:109F3000EC30002B39D1EB6A1FFA83F9D6F8E840F0
:109F400034B123682046494698476468002CF8D10C
:109F5000B8F1000FDAD1BDE8F883D6F8C800696B14
:109F6000036889B29847B8F1000FCFD1F3E7D6F86C
:109F7000CC00A96B036889B29847B8F1000FC5D12E
:109F8000E9E7D6F8D000E96B036889B29847B8F1E1
:109F9000000FBBD1DFE7D6F8D400296C036889B283
:109FA0009847B8F1000FB1D1D5E703F1FF3900238D
:109FB0001FFA89F9C6F8EC30C0E700BF0004014081
:109FC000289100202DE9F843304D2B8AB5F80C80FC
:109FD00018EA030827D02E4E4FF00047B8FA88F34E
:109FE00027FA03F2D24391B21B3B08EA0208298206
:109FF000042B15D8DFE803F0372D23190300D6F81A
:10A00000EC30002B39D1EB6A1FFA83F9D6F8E8401F
:10A0100034B123682046494698476468002CF8D13B
:10A02000B8F1000FDAD1BDE8F883D6F8C800696B43
:10A03000036889B29847B8F1000FCFD1F3E7D6F89B
:10A04000CC00A96B036889B29847B8F1000FC5D15D
:10A05000E9E7D6F8D000E96B036889B29847B8F110
:10A06000000FBBD1DFE7D6F8D400296C036889B2B2
:10A070009847B8F1000FB1D1D5E703F1FF390023BC
:10A080001FFA89F9C6F8EC30C0E700BF00040140B0
:10A09000289100202DE9F843304D2B8AB5F80C802B
:10A0A00018EA030827D02E4E4FF00047B8FA88F37D
:10A0B00027FA03F2D24391B21B3B08EA0208298235
:10A0C000042B15D8DFE803F0372D23190300D6F849
:10A0D000C430002B39D1EB6A1FFA83F9D6F8C0409F
:10A0E00034B123682046494698476468002CF8D16B
:10A0F000B8F1000FDAD1BDE8F883D6F8A000696B9B
:10A10000036889B29847B8F1000FCFD1F3E7D6F8CA
:10A11000A400A96B036889B29847B8F1000FC5D1B4
:10A12000E9E7D6F8A800E96B036889B29847B8F167
:10A13000000FBBD1DFE7D6F8AC00296C036889B209
:10A140009847B8F1000FB1D1D5E703F1FF390023EB
:10A150001FFA89F9C6F8C430C0E700BF000C004000
:10A16000289100202DE9F8432F4D2B8AB5F80C805B
:10A1700018EA030827D02D4E4FF00047B8FA88F3AD
:10A1800027FA03F2D24391B21B3B08EA0208298264
:10A19000042B15D8DFE803F0352B22190300D6F87D
:10A1A0009C30002B37D1EB6A1FFA83F9D6F8984020
:10A1B00034B123682046494698476468002CF8D19A
:10A1C000B8F1000FDAD1BDE8F883B06F696B0368AE
:10A1D00089B29847B8F1000FD0D1F4E7F06FA96BBE
:10A1E000036889B29847B8F1000FC7D1EBE7D6F8FA
:10A1F0008000E96B036889B29847B8F1000FBDD1C0
:10A20000E1E7D6F88400296C036889B29847B8F171
:10A21000000FB3D1D7E703F1FF3900231FFA89F903
:10A22000C6F89C30C2E700BF00080040289100201B
:10A230002DE9F8432C4D2B8AB5F80C8018EA030859
:10A2400025D02A4E4FF00047B8FA88F327FA03F2D8
:10A25000D24391B21B3B08EA02082982042B13D88F
:10A26000DFE803F0322920170300736F002B34D18D
:10A27000EB6A1FFA83F9346F34B1236820464946EC
:10A2800098476468002CF8D1B8F1000FDCD1BDE824
:10A29000F883306D696B036889B29847B8F1000F95
:10A2A000D2D1F4E7706DA96B036889B29847B8F111
:10A2B000000FC9D1EBE7B06DE96B036889B298472D
:10A2C000B8F1000FC0D1E2E7F06D296C036889B2E4
:10A2D0009847B8F1000FB7D1D9E703F1FF39002350
:10A2E0001FFA89F97367C6E700040040289100202F
:10A2F0002DE9F8434FF080452B8AB5F80C8018EA19
:10A30000030825D0294E4FF00047B8FA88F327FA02
:10A3100003F2D24391B21B3B08EA02082982042BC4
:10A3200013D8DFE803F0322920170300F36C002B69
:10A3300034D1EB6A1FFA83F9B46C34B12368204638
:10A34000494698476468002CF8D1B8F1000FDCD179
:10A35000BDE8F883B06A696B036889B29847B8F1C1
:10A36000000FD2D1F4E7F06AA96B036889B298476D
:10A37000B8F1000FC9D1EBE7306BE96B036889B224
:10A380009847B8F1000FC0D1E2E7706B296C036801
:10A3900089B29847B8F1000FB7D1D9E703F1FF3977
:10A3A00000231FFA89F9F364C6E700BF2891002053
:10A3B0002DE9F8432C4D2B8AB5F80C8018EA0308D8
:10A3C00025D02A4E4FF00047B8FA88F327FA03F257
:10A3D000D24391B21B3B08EA02082982042B13D80E
:10A3E000DFE803F0322920170300736A002B34D111
:10A3F000EB6A1FFA83F9346A34B123682046494670
:10A4000098476468002CF8D1B8F1000FDCD1BDE8A2
:10A41000F8833068696B036889B29847B8F1000F18
:10A42000D2D1F4E77068A96B036889B29847B8F194
:10A43000000FC9D1EBE7B068E96B036889B29847B0
:10A44000B8F1000FC0D1E2E7F068296C036889B267
:10A450009847B8F1000FB7D1D9E703F1FF390023CE
:10A460001FFA89F97362C6E70000014028910020B5
:10A470002DE9F8432C4D2B8AB5F80C8018EA030817
:10A4800025D02A4E4FF00047B8FA88F327FA03F296
:10A49000D24391B21B3B08EA02082982042B13D84D
:10A4A000DFE803F0322920170300736A002B34D150
:10A4B000EB6A1FFA83F9346A34B1236820464946AF
:10A4C00098476468002CF8D1B8F1000FDCD1BDE8E2
:10A4D000F8833068696B036889B29847B8F1000F58
:10A4E000D2D1F4E77068A96B036889B29847B8F1D4
:10A4F000000FC9D1EBE7B068E96B036889B29847F0
:10A50000B8F1000FC0D1E2E7F068296C036889B2A6
:10A510009847B8F1000FB7D1D9E703F1FF3900230D
:10A520001FFA89F97362C6E70000014028910020F4
:10A53000F0B50668B30AA3F58013502B00F28380B0
:10A54000DFE803F0958C8F8281812981818181816F
:10A5500081818181818181818181818181818181EB
:10A5600081818181818181818181818181818181DB
:10A5700081818181818181818181818181818181CB
:10A5800081818181859281818181818181818181A6
:10A5900081818181880007254FF49C774379B6F843
:10A5A0000CE0022023FA00F4A0401FFA80FCA8006F
:10A5B0002346441903EB4403364C00295FD04CEA90
:10A5C0000E0C03F1040E44F8231044F82E20A6F8D4
:10A5D0000CC0E319EFF31181502282F31288421963
:10A5E00004EBC202D2F810C0BCF1000F03D044F853
:10A5F00007C013690433421904EBC202576917B14B
:10A600001F6053690433421904EBC202976917B102
:10A610001F6093690433421904EBC202D76917B172
:10A620001F60D36904330027CAB21F6082F3118808
:10A63000284404EBC004236AE3B9B38923F001037F
:10A640001B041B0CB381F0BD0425C027A6E7002521
:10A650002027A3E706254FF488779FE70225702778
:10A660009CE70325982799E70525E82796E7012524
:10A67000482793E7B38943F00103B381F0BD2EEA85
:10A680000C0C03F1040EA6F80CC044F8231044F897
:10A690002E209EE72891002010B503687C487D4C51
:10A6A0000139834282B0246889B200F0AF80A0F5FE
:10A6B0008060834200F0AA8000F58040834200F071
:10A6C000818000F5806083427CD000F58060834209
:10A6D00078D018886408B4FBF2F4013CA4B282B2CA
:10A6E000B3F1804F0AD06C48834207D000F58060F8
:10A6F000834203D000F58060834202D122F07002D1
:10A7000092B26648834200F08F8000F580608342F9
:10A7100000F0938022F4407200F56C4092B28342C4
:10A720001A80D9621C8540F09180012100221A868E
:10A73000998219885A4841F001018342198049D011
:10A74000B3F1804F00F08D80534A934200F08B802C
:10A7500002F58062934200F0888002F580629342A5
:10A7600000F0858002F58062934200F0828002F55D
:10A77000806293427FD002F5704293427DD002F511
:10A78000705293427BD002F58062934279D002F5F9
:10A790008062934277D0A2F59832934275D002F549
:10A7A0008062934215D002F58062934208BF0D2269
:10A7B00010D002A84FF0012340F8043D12F0D6F863
:10A7C00002B010BD1888B4FBF2F4013CA4B282B20E
:10A7D00086E70C22334B03EBC20201A854798DF8B3
:10A7E0000440012300228DF805308DF807308DF8E4
:10A7F000062012F0BBF81B2C0FD02E2CE0D12A4BD8
:10A80000019301A812F0B2F802B010BD1888B4FB91
:10A81000F2F4013CA4B282B270E7244B019301A888
:10A8200012F0A4F802B010BD01201A80D9621C8574
:10A8300098821A8802431A8086E701201A80D9621A
:10A840001C8598821A8802431A8079E7104A93423D
:10A850003FF46BAF01229A821A8842F001021A80FB
:10A860006EE70122B6E70222B4E70322B2E7042230
:10A87000B0E70522AEE70622ACE70722AAE70822E6
:10A88000A8E70922A6E70A22A4E70B22A2E700BF55
:10A8900000040140ACBC0020000400400010004057
:10A8A000000001406CA504082C0100011901000101
:10A8B0000B4A0C4B90421B6810D0A2F5806290426C
:10A8C0000CD002F58042904208D002F5806290429E
:10A8D00004D002F58062904218BF5B0818467047AA
:10A8E00000040140ACBC00202B4B98423CD0B0F19E
:10A8F000804F3BD0A3F57C43984239D003F5806369
:10A90000984237D003F58063984235D003F58063D1
:10A91000984233D003F58063984233D003F57043F7
:10A92000984231D003F57053984229D003F58063E3
:10A9300098422BD003F58063984229D0A3F5983331
:10A94000984227D003F58063984207D003F58063CF
:10A95000984208BF0D2202D0002070470C220F4BF6
:10A9600003EBC203187970470022F8E70122F6E7EB
:10A970000222F4E70322F2E70422F0E70522EEE7E1
:10A980000822ECE70622EAE70722E8E70922E6E7E1
:10A990000A22E4E70B22E2E7000001406CA504086C
:10A9A0002DE9F04F83B08E4DDFF8408201908B4649
:10A9B0000BF1FF339B46013300F00E8135F09AFB1B
:10A9C000884C894FDFF828C24FF4FA7A4FF0100E06
:10A9D0004FF47A76DCF80430C3F30803002B40F020
:10A9E000DF80EFF31183002B40F0DA802168AA6842
:10A9F00000BF23689942F9D1386806FB00F39A1A20
:10AA0000B2FBF0F206FB0121DCF80430C3F30803CB
:10AA1000002B40F0A680EFF31183002B40F0A180C3
:10AA20002368A86800BF22689342F9D1D7F8009044
:10AA300006FB09F2101AB0FBF9F006FB03035B1AE0
:10AA4000B3F57A7FE0D3BAF1010AC3D1019B581C58
:10AA5000C0B235F0ABF9DFF898C1DCF804304FF440
:10AA60007A7AC3F3080356464FF0100E002B38D104
:10AA7000EFF31183002B34D12168AA6800BF23684B
:10AA80009942F9D1386806FB00F39A1AB2FBF0F24A
:10AA900006FB0121DCF80430C3F30803002B41D18D
:10AAA000EFF31183002B3DD12368A86800BF226813
:10AAB0009342F9D1D7F8009006FB09F2101AB0FBC7
:10AAC000F9F006FB03035B1AB3F57A7FE2D3BAF120
:10AAD000010A3FF46DAFDCF80430C3F30803002B28
:10AAE000C6D0EFF311828EF31288A8682B68D903C1
:10AAF00003D50123C8F80030A8682368D8F80010EF
:10AB0000D2B282F311883A68194406FB02F31B1A89
:10AB1000B3FBF2F306FB0131DCF80430C3F30803A6
:10AB2000002BBDD0EFF311808EF31288D5F808907A
:10AB30002B68DB0304D50123C8F80030D5F8089052
:10AB40002368D8F80020C0B280F311883868134415
:10AB500006FB00F2A2EB0902B2FBF0F206FB0323B4
